:020000040800F2
:100000007823002099010008A1010008A30100083D
:10001000A5010008A7010008A901000800000000D0
:10002000000000000000000000000000AB0100081C
:10003000AD01000800000000AF010008390D000804
:10004000B3010008B3010008B3010008B3010008C0
:10005000B3010008B3010008B3010008B3010008B0
:10006000B3010008B3010008B3010008B3010008A0
:10007000B3010008B3010008B3010008B301000890
:10008000B3010008B3010008B3010008B301000880
:10009000B3010008B3010008B3010008B301000870
:1000A000B3010008B3010008B3010008B301000860
:1000B000B3010008B3010008B3010008B301000850
:1000C000B3010008B3010008B3010008B301000840
:1000D000B30100082915000839150008B30100080C
:1000E000B3010008B3010008B301000800F002F8F2
:1000F00000F043F80AA090E8000C82448344AAF17F
:100100000107DA4501D100F038F8AFF2090EBAE87C
:100110000F0013F0010F18BFFB1A43F0010318473B
:100120006C4100008C410000103A24BF78C878C1AF
:10013000FAD8520724BF30C830C144BF04680C60ED
:10014000704700000023002400250026103A28BF35
:1001500078C1FBD8520728BF30C148BF0B60704739
:100160001FB59DE8030000F007F900F077F81FBD08
:1001700010B5002000F0B7F810BD00F07DF9114671
:10018000FFF7EEFF02F038FF00F0B5F903B4FFF718
:10019000EFFF03BC00F06AF90948804709480047AF
:1001A000FEE7FEE7FEE7FEE7FEE7FEE7FEE7FEE727
:1001B000FEE7FEE704480549054A064B7047000084
:1001C0005D0D0008ED000008780300207823002072
:1001D00078130020781300202DE9F04107461546DA
:1001E0000E46102000F050F804000AD06760C4E901
:1001F000026500F045F80168216004600020BDE858
:10020000F0810120FBE74FF0000200B51346944651
:100210009646203922BFA0E80C50A0E80C50B1F15E
:100220002001BFF4F7AF090728BFA0E80C5048BF72
:100230000CC05DF804EB890028BF40F8042B08BF10
:10024000704748BF20F8022B11F0804F18BF00F80C
:10025000012B7047704770477047000070B5064C1F
:100260007C44064D7D4403E0206820448047241DE3
:10027000AC42F9D170BD0000484000004840000089
:10028000004870474C03002070B5064600F058F84F
:10029000056806F10B0020F00704B4429CBF002063
:1002A00070BD2B466A68BAB11068A04210D304F141
:1002B000080188423CBF5068586007D35168101944
:1002C00041601168091B016058601460101D70BD09
:1002D00013465268002AE7D12146284600F038F834
:1002E0000028DED170BD2DE9F0410646FFF7C8FFBA
:1002F0008046454613E016B1E068B0420ED1206852
:100300002860D4E90101D8F800708847204600F041
:1003100069F8D8F80000B842EBD100E025462C6817
:10032000002CE8D1BDE8F08110B500F087F8BDE8F9
:10033000104000F07EB80000004870471403002011
:10034000004870471C030020704770477047704793
:1003500038B504460A4600206946AFF300800028FD
:1003600008BF38BD02460099204600F0AAF80120D7
:1003700038BD012000F0E1B8F8B5AFF300800546C4
:1003800000200C46102000BF0646A819A0420DD937
:10039000324669460020AFF30080070008BF00F036
:1003A000CCF80098A04218BF0546C419FFF7C8FF53
:1003B00005600746F01D20F007004619284600F0AA
:1003C0000AF8B44208BFF8BDA21B31463868BDE840
:1003D000F84000F076B800210160C0E901107047D4
:1003E0001020704770B50446051FFFF7A9FF00688D
:1003F000002C14BF446870BD002C18BFAC423CBF39
:1004000020466468F8D301680A18AA4218BF4560FC
:1004100003D12A6805461144016028684119A142A8
:100420001CBF6C6070BD6168696021680844286009
:1004300070BD002801D000F019B8704710B5002138
:1004400002A000F061F8012010BD000053494750A0
:1004500056464E3A20507572652076697274756101
:100460006C20666E2063616C6C6564000149182025
:10047000ABBEFEE7260002007546FFF75DFFAE4605
:1004800005006946534620F00700854618B020B5A0
:10049000FFF790FEBDE820404FF000064FF0000748
:1004A0004FF000084FF0000B21F00701AC46ACE81C
:1004B000C009ACE8C009ACE8C009ACE8C0098D4689
:1004C0007047034640688C46002818BF88423CBFEE
:1004D00003464068F8D318681844884207D00CF1E6
:1004E000030020F00700001D411A521A0146081DA2
:1004F0000A60FFF777BF10B50446AFF300802046CF
:10050000BDE81040FFF742BE70B505460C460A2014
:1005100000E06D1C00F018F835B128780028F8D1FB
:1005200002E0641C00F010F814B120780028F8D123
:10053000BDE870400A2000F007B810B500F00CF8D4
:10054000BDE81040FFF775BF08B569468DF800009B
:100550000320ABBE08BD704710B5012805D00021AF
:1005600003A0FFF7D1FF012010BD09A1F8E70000AB
:1005700053494752544D454D3A204F7574206F668C
:100580002068656170206D656D6F727900000000F4
:100590003A2048656170206D656D6F727920636FD8
:1005A000727275707465640021B1826842F0010254
:1005B000826003E0826822F001028260704721B10C
:1005C000826842F48072826003E0826822F4807262
:1005D00082607047014600208A6802F004020AB176
:1005E000012000E000207047014600208A6802F0E8
:1005F00008020AB1012000E00020704730B5024631
:100600000020002350680F4C20400D790C6844EA0C
:1006100005242043506090680B4C2040D1E90254DF
:100620002C434D7944EA450420439060D06A20F47D
:1006300070000C7C641EE4B2234340EA0350D06295
:1006400030BD0000FFFEF0FFFDF7F1FFF0B50446FE
:100650000D4600200021092D11DDE068A5F10A06F4
:1006600006EB4607072606FA07F18843A5F10A06B6
:1006700006EB460603FA06F10843E0600CE0206949
:1006800005EB4507072606FA07F1884305EB450603
:1006900003FA06F108432061072A0FDA606B561E41
:1006A00006EB86071F2606FA07F18843561E06EB5F
:1006B000860605FA06F10843606322E00D2A0FDA88
:1006C000206BD61F06EB86071F2606FA07F1884324
:1006D000D61F06EB860605FA06F10843206310E0F4
:1006E000E06AA2F10D0606EB86071F2606FA07F15F
:1006F0008843A2F10D0606EB860605FA06F10843CB
:10070000E062F0BD816841F008018160704721B16D
:10071000826842F4A002826003E0826822F4A002B0
:1007200082607047816841F004018160704721B1A7
:10073000026842F00102026004E002684FF6FE73B4
:100740001A4002607047000001684FF6FE721140C7
:1007500001600021016041608160C1604B498842B5
:1007600008D14A490839496841F00F01474A083A17
:1007700051608AE045491431884208D1434908391B
:10078000496841F0F001414A083A51607DE03F4933
:100790002831884208D13D490839496841F47061DF
:1007A0003A4A083A516070E038493C31884208D1F1
:1007B00036490839496841F47041344A083A516071
:1007C00063E032495031884208D1304908394968DC
:1007D00041F470212D4A083A516056E02B496431AA
:1007E000884208D129490839496841F47001274AEB
:1007F000083A516049E025497831884208D12349B7
:100800000839496841F07061204A083A51603CE07B
:100810001F49884206D1011F096841F00F01021FDC
:10082000116032E01A491431884208D11849091F71
:10083000096841F0F001164A121F116025E01449C1
:100840002831884208D11249091F096841F47061B2
:100850000F4A121F116018E00D493C31884208D13F
:100860000B49091F096841F47041094A121F1160C0
:100870000BE007495031884207D10549091F096833
:1008800041F47021024A121F1160704708000240B3
:100890000804024010B50022026847F6F0739A433C
:1008A0000C6A8B6823430C6923434C6923438C698E
:1008B0002343CC6923434C6A23438C6A23431A4362
:1008C0000260CB6843600B6883604B68C36010BDF7
:1008D0002DE9F041024600250026002000230024D7
:1008E000002791F803C00CF00F0591F803C00CF03D
:1008F000100CBCF1000F03D091F802C04CEA0505C2
:1009000091F800C0BCF1000F31D0146800202BE03A
:100910004FF0010C0CFA00F3B1F800C00CEA03062A
:100920009E4220D183004FF00F0C0CFA03F7BC431A
:1009300005FA03FC4CEA040491F803C0BCF1280F4B
:1009400006D14FF0010C0CFA00FCC2F814C00AE00A
:1009500091F803C0BCF1480F05D14FF0010C0CFA1F
:1009600000FCC2F810C0401C0828D1D31460B1F8B4
:1009700000C0BCF1FF0F34DD546800202EE000F110
:10098000080C4FF0010808FA0CF3B1F800C00CEAAB
:1009900003069E4221D183004FF00F0C0CFA03F79F
:1009A000BC4305FA03FC4CEA040491F803C0BCF113
:1009B000280F05D100F1080C08FA0CF8C2F81480D1
:1009C00091F803C0BCF1480F07D100F1080C4FF0BB
:1009D000010808FA0CF8C2F81080401C0828CED391
:1009E0005460BDE8F0810000F0B50A460023002401
:1009F0000021002500F00046B6F1004F02D11D4E47
:100A0000F16901E01B4E7168C0F3034583B200F445
:100A10004016B6F5401F08D121F07061154E76687A
:100A200026F07066134F7E6012E000F48016B6F573
:100A3000801F06D1032606FA05F4A14341F0706138
:100A400006E0460D360103FA06F6B14341F0706147
:100A500022B1460D360103FA06F6314300F0004696
:100A6000B6F1004F02D1034EF16101E0014E716019
:100A7000F0BD0000000001400246002093680B40DA
:100A80000BB1012000E00020704741617047016117
:100A90007047000070B5002100230F22C47804B312
:100AA000154C246804F4E064C4F5E064210AC1F143
:100AB0000403CA40447804FA03F1847814402143C3
:100AC00009010E4C0678A155047804F01F05012495
:100AD000AC4005786D11AD0005F1E025C5F8004189
:100AE00009E0047804F01F050124AC40044D0678A9
:100AF000761145F8264070BD0CED00E000E400E002
:100B000080E100E001460020034A506820F44040A4
:100B100008435060704700000010024029B1064AA7
:100B200052690243044B5A6104E0034A526982430A
:100B3000014B5A61704700000010024029B1064A7B
:100B4000D2690243044BDA6104E0034AD26982436A
:100B5000014BDA61704700000010024029B1064ADB
:100B600092690243044B9A6104E0034A926982430A
:100B7000014B9A61704700000010024030B500211F
:100B80000022002400232D4D6D6805F00C0121B1D9
:100B9000042905D0082923D105E0294D056022E06C
:100BA000274D05601FE0254D6D6805F47012234D3B
:100BB0006D6805F48034022505EB92421CB9214D85
:100BC000554305600BE01D4D6D6805F400351DB102
:100BD0001C4D5543056002E0194D5543056002E088
:100BE000174D056000BF00BF144D6D6805F0F001A2
:100BF0000909154D6B5C0568DD4045600F4D6D685A
:100C000005F4E061090A104D6B5C4568DD408560C4
:100C10000A4D6D6805F46051C90A0B4D6B5C45685F
:100C2000DD40C560054D6D6805F44041890B074DF9
:100C30006B5CC568B5FBF3F5056130BD0010024083
:100C400000127A0000093D0014000020240000205A
:100C500010B500F001F810BD0CB500200190009017
:100C60003348006840F480303149086000BF3048A4
:100C7000006800F4003000900198401C019000983A
:100C800018B90198B0F5A06FF1D12948006800F4B7
:100C9000003010B10120009001E000200090009889
:100CA000012843D12348006840F010002149086022
:100CB0000846006820F0030008600846006840F01D
:100CC000020008601A4840681949486008464068B0
:100CD00048600846406840F48060486008464068C4
:100CE00020F47C1048600846406840F4E8104860F2
:100CF0000846006840F08070086000BF0C4800683B
:100D000000F000700028F9D00948406820F0030086
:100D1000074948600846406840F00200486000BF4C
:100D20000348406800F00C000828F9D10CBD000011
:100D3000001002400020024006480068401C05499F
:100D40000860084600680449884202D90020014929
:100D500008607047C40000204016400010B51348DA
:100D6000006840F0010011490860084640681049D9
:100D700008400E494860084600680E4908400B4983
:100D800008600846006820F4802008600846406833
:100D900020F4FE0048604FF41F008860FFF758FF02
:100DA0004FF000600449086010BD000000100240D0
:100DB0000000FFF8FFFFF6FE08ED00E0F0B50C467E
:100DC000154600220021068C4FF6FE773E40068431
:100DD000028B018C4FF60C7632407E1C06EA03161D
:100DE0002E433243104EB0420ED0104EB0420BD0C4
:100DF000B0F1804F08D00E4EB04205D00D4EB0423B
:100E000002D00D4EB04206D14FF6FD76314044F08F
:100E10000106314305E04FF6F576314044F0010616
:100E2000314302830184F0BD002C014000340140B5
:100E30000004004000080040000C0040F0B50C46E3
:100E40001546002200210026078C4FF6EF7C07EAAA
:100E50000C070784028B018C4FF6FF7707EA041614
:100E600040F6FF473A404FF6FF7707EA03373A4329
:100E70004FF6FF7707EA05273A43114FB8420ED0E5
:100E8000104FB8420BD0B0F1804F08D00E4FB8428F
:100E900005D00E4FB84202D00D4FB84206D14FF6E2
:100EA000DF77394046F01007394305E04FF65F77AA
:100EB000394044F01007394302830184F0BD00003B
:100EC000002C0140003401400004004000080040B4
:100ED000000C0040F0B50C4615460022002100260B
:100EE000078C4FF6FF6C07EA0C070784828B018C96
:100EF0004FF6FF7707EA04264FF60C773A404FF695
:100F0000FF7707EA03172F433A43114FB8420ED039
:100F1000104FB8420BD0B0F1804F08D00E4FB842FE
:100F200005D00E4FB84202D00D4FB84206D14FF651
:100F3000FF57394046F48077394305E04FF2FF57B9
:100F4000394044F48077394382830184F0BD000046
:100F5000002C014000340140000400400008004023
:100F6000000C0040F0B50C4615460022002100267A
:100F7000078C4EF6FF7C07EA0C070784828B018CF6
:100F80004FF6FF7707EA043640F6FF473A404FF640
:100F9000FF7707EA05273A434FF6FF7707EA03375B
:100FA0003A43114FB8420ED0104FB8420BD0B0F1B7
:100FB000804F08D00E4FB84205D00E4FB84202D035
:100FC0000D4FB84206D14DF6FF77394046F48057B1
:100FD000394305E047F6FF57394044F48057394319
:100FE00082830184F0BD0000002C014000340140E8
:100FF0000004004000080040000C004021B10288BD
:1010000042F08002028004E002884FF67F731A40AB
:1010100002807047CA430282704721B1028842F0C1
:101020000102028004E002884FF6FE731A4002803B
:101030007047F0B50C4615461E46002100220023DD
:101040000189028B038C4FF6F877394021434FF624
:10105000FC473A4040F201173A434FF6DD773B40F8
:101060004FF6FF7707EA06172F433B4301810283C0
:101070000384F0BD0146888C7047000070B50546BA
:101080000C46244885420ED0234885420BD0B5F14A
:10109000804F08D02148854205D02148854202D0A2
:1010A0002048854200D100E000BF208850B9238944
:1010B000A28861882846FFF781FEE188284600F073
:1010C000ABF925E0208804280AD12389A288618809
:1010D0002846FFF7B3FEE188284600F0A6F917E09E
:1010E000208808280AD12389A28861882846FFF72A
:1010F000F1FEE188284600F0A5F909E02389A288DD
:1011000061882846FFF72EFFE188284600F0A3F902
:1011100070BD0000002C014000340140000400407C
:1011200000080040000C00400021018041800121A6
:1011300081800021C180018170471AB183890B43EE
:10114000838102E083898B438381704770B50024DB
:1011500000220023058C4FF6FE7635400584028C74
:101160008388048B4FF68F752C40B51E2C400D885C
:101170002C43751E2A400D892A434D882A43144D5D
:10118000A8420BD0134DA84208D0134DA84205D059
:10119000124DA84202D0124DA84213D14FF6F77556
:1011A0002A404D892A434FF6FB752A408D882A43F1
:1011B0004FF6FF652B404FF6FF552B408D892B4393
:1011C000CD892B4383800483CD888586028470BDBE
:1011D000002C014000340140004001400044014027
:1011E000004801400A460021018B4FF6F773194071
:1011F000114301837047000070B5002400220023D2
:10120000058C4FF6EF7635400584028C8388048B7D
:1012100048F6FF752C404FF6FF452C400D884FF6E1
:10122000FF7606EA05252C434FF6DF752A400D8927
:1012300006EA05152A434D8806EA05152A43154D89
:10124000A84202D0144DA8421DD14FF67F752A4006
:101250004D894FF6FF7606EA05152A434FF6BF750E
:101260002A408D8806EA05152A434FF6FF352B40A4
:101270004FF2FF752B408D8906EA85052B43CD89FA
:1012800006EA85052B4383800483CD880587028485
:1012900070BD0000002C0140003401400A460021CE
:1012A000018B4FF2FF7319404FF6FF7303EA0223DD
:1012B000194301837047000070B500240022002309
:1012C000058C4FF6FF6635400584028C8388848B3D
:1012D0004FF68F752C404FF6FC752C400D882C4333
:1012E0004FF6FF552A400D894FF6FF7606EA052591
:1012F0002A434D8806EA05252A43154DA84202D007
:10130000144DA8421DD14FF2FF752A404D894FF66A
:10131000FF7606EA05252A434FF6FF352A408D88D9
:1013200006EA05252A434EF6FF752B404DF6FF755C
:101330002B408D8906EA05152B43CD8906EA051554
:101340002B4383808483CD888587028470BD000011
:10135000002C0140003401400A460021818B4FF6E9
:10136000F7731940114381837047000070B5002264
:1013700000230024058C4EF6FF7635400584038C4F
:101380008488828B48F6FF752A404FF6FF452A4035
:101390000D884FF6FF7606EA05252A434DF6FF75C0
:1013A0002B400D8906EA05352B434D8806EA0535A5
:1013B0002B430B4DA84202D00A4DA84208D14BF650
:1013C000FF752C408D894FF6FF7606EA85152C4374
:1013D00084808283CD88A0F84050038470BD0000D3
:1013E000002C0140003401400A460021818B4FF25D
:1013F000FF7319404FF6FF7303EA022319438183F9
:101400007047818670470187704781877047A0F8D1
:101410004010704781847047028B4FF6F3731A4077
:101420000283028B0A4302837047028B4FF2FF3321
:101430001A400283028B4FF6FF7303EA01231A431B
:1014400002837047828B4FF6F3731A408283828B3C
:101450000A4382837047828B4FF2FF331A408283A4
:10146000828B4FF6FF7303EA01231A43828370478E
:10147000002202881D4B98420ED01D4B98420BD083
:10148000B0F1804F08D01B4B984205D01A4B9842C0
:1014900002D01A4B984204D14FF68F731A404B88F2
:1014A0001A43174B984207D0164B984204D04FF678
:1014B000FF431A40CB881A4302808B8883850B88B0
:1014C00003850A4B98420BD0094B984208D00E4B2B
:1014D000984205D00D4B984202D00D4B984201D155
:1014E0000B7A03860123838270470000002C0140A1
:1014F000003401400004004000080040000C00409F
:101500000010004000140040004001400044014031
:10151000004801404FF6FF71818000210180C180A9
:10152000418001727047000010B50248006800F069
:101530005BFC10BDE000002010B50248006800F020
:1015400053FC10BDE400002010B50022002340F63B
:101550006A14A14200D100BF0A1201249440A3B230
:10156000DC43048010BD21B1828942F400528281A3
:1015700004E082894DF6FF731A408281704770B58E
:101580000246002400230025002040F66A16B142DE
:1015900000D100BFC1F3421501F01F03012606FA76
:1015A00003F3012D02D19689334006E0022D02D1CA
:1015B000168A334001E0968A33400C12012606FA5F
:1015C00004F41688344013B10CB1012000E000206F
:1015D00070BDF0B50346002400260025002040F62B
:1015E0006A17B94200D100BF1846C1F3421401F096
:1015F0001F06012707FA06F5012C01D10C3004E083
:10160000022C01D1103000E014301AB107682F43CA
:10161000076002E00768AF430760F0BD2DE9F047BF
:1016200086B005460E460024A24600BFA14600270C
:10163000B08900B100BF2F462C8A4CF6FF700440E1
:10164000F08804432C82AC894EF6F3100440B08835
:1016500031890843718908430443AC81AC8A4FF651
:10166000FF400440B0890443AC8201A8FFF786FA2A
:101670001F48874202D1DDF810A001E0DDF80CA080
:10168000A88900F4004040B10AEBCA0000EB0A1040
:1016900031684900B0FBF1F807E00AEBCA0000EB43
:1016A0000A1031688900B0FBF1F86420B8FBF0F053
:1016B00004012009642101FB1089A88900F400407D
:1016C00040B1322000EBC900B0FBF1F000F00700A0
:1016D000044308E0322000EB09106421B0FBF1F074
:1016E00000F00F0004432C8106B0BDE8F087000035
:1016F0000038014001468888C0F3080070470000A8
:1017000030B587B00446654AD2E900109268CDE949
:101710000202019101210846FFF720FA01216048E9
:10172000FFF762F9032010230D220221009004A884
:1017300000F06AFC04F58071D0E900238068C1E9FB
:101740001223086504A800BF00BF032010230E2247
:101750000221009004A800F057FC04F58071D0E944
:1017600000238068C1E91523C86504A800BF00BF35
:10177000032010230F220021009004A800F044FC55
:1017800004F18001D0E900238068C1E91423886551
:1017900004A800BF00BF03201023024601210090CF
:1017A00004A800F031FC04F58071D0E900238068C2
:1017B000C1E91823886604A800BF00BF04F5A4701F
:1017C00000F01EFC04F5AA7000F01AFC04F1D00031
:1017D00000F016FC04F5B07000F012FC322001F0AD
:1017E000C9FB1820A07000BF00BF607000BF214679
:1017F00001AA002007E032F8105001F1180323F885
:101800001050431CD8B20628F5DB00BF204600F07C
:101810008BFE01239A1E1946204600F0D6FF322087
:1018200001F0A8FB002104F5B67000F089FD01214C
:1018300004F5BC7000F084FD032340F2F312002194
:1018400004F1F00000F0FCFB40F2671340F2CF72AD
:10185000012104F5807000F0F3FB124B124A13498A
:1018600004F1DC0000F0DCFC0021CC34E1642165F3
:1018700000206065A065E06520666166A166E1669E
:1018800021670120207001F0FFFB6064CC3C04F56F
:10189000B07000F0B1FB07B030BD0000E8410008B7
:1018A00000023000000060419A9939410000404137
:1018B0002DE9FC5F0446D4F8A0A0D4F898905146D6
:1018C000484601F029FA834602F0D6F807461A4A3C
:1018D0001A4B01F0B3FE05460022194B01F00CFC37
:1018E000CDE9000101F0D6FBC4F8C400204600F0A9
:1018F0004DF8D4F8AC0002F0BFF8C834C4E91801C0
:1019000054F8C8090F4902F04DFB09D30E48D4F82A
:10191000C81002F07BFA05460A4902F043FB08D2E0
:1019200004F1D00000F068FB002084F8CC0000BF78
:1019300000BFBDE8FC9F0000CB67791EDCA54C40D2
:1019400000001AC000007042000080BF3EB504468F
:1019500003226946204600F08EFD0099C4F89810D5
:101960000199C4F89C100299C4F8A010022269469B
:10197000204600F045FE0099C4F8A8100199C4F86B
:10198000AC100299C4F8B0103EBD00002DE9F04F34
:1019900089B082462E4C2F4DDAE9310102F03EFB30
:1019A000834602F069F806462B4A2C4B01F046FEAE
:1019B0008046294A294B01F041FECDE90601224625
:1019C0002B46DDE9060101F039FE064624480CC825
:1019D000304601F091FB224A03C2DAF8AC0002F073
:1019E0004BF806460F46DAE9310102F017FB834651
:1019F00002F042F88046184A1A4B01F01FFECDE96A
:101A0000000117480CC8009801F076FB32463B46AF
:101A1000CDE9020101F070FBCDE9040122462B461D
:101A2000DDE9040101F00AFE80468946DAF8C800C3
:101A300002F022F842464B46CDE9020101F05CFB80
:101A4000064601F027FBCAF8C80009B0BDE8F08FD0
:101A50007B14AE47E17A743F5C8FC2F5285CEF3FA0
:101A600060000020285CFF3F2DE9F04F8BB08246DC
:101A70000020099008909AF8CC0060B900210AF182
:101A8000F00000F069FB00210AF5807000F064FBB3
:101A90000BB0BDE8F08F0AF1D00000F0B1FA444A73
:101AA0005168DAF8AC0002F0B1F90546404A116815
:101AB000DAF8C80002F0AAF90646294602F008F84A
:101AC000044602F03BF900B20990394AD168DAF8CD
:101AD000400102F09BF9064601F0CEFFCDE904017A
:101AE0003349886801F0C8FFCDE90001DAF81861D0
:101AF0003246DAF81C3101F0A1FDCDE90201DDE941
:101B0000042301F0F9FA04460D46099801F02FFD6F
:101B100022462B46CDE9060101F0EEFA804601F09F
:101B2000F7FC00B209902249086901F0A5FF804640
:101B3000DAF828613246DAF82C3101F07FFDCDE980
:101B40000401099801F013FD0446DDE9042301F0C6
:101B5000A9FECDE9060101F0DBFC0FFA80FB594636
:101B60000AF1F00000F0F8FA1149086901F084FF69
:101B70008046DAF828613246DAF82C3101F05EFD51
:101B8000CDE90601099801F0F2FCCDE90401DDE997
:101B9000062301F0B1FA044601F0BAFC0FFA80FB0B
:101BA00059460AF5807000F0D7FA00BF70E70000D0
:101BB000B00000202DE9F04F8BB082460AF5B670D8
:101BC00000F042FC0AF5BC7000F03EFC3C4C3D4D80
:101BD00000BFBAF96E01834601F0C9FC3A4A3B4B9B
:101BE000CDE9040101F02AFD0022394BCDE90601BF
:101BF00001F036FB22462B46CDE9080101F030FB0F
:101C000006460F4600BFBAF97A01834601F0AFFCE1
:101C10002D4A2E4BCDE9040101F010FD00222C4B82
:101C2000CDE9060101F01CFB22462B46CDE9080157
:101C300001F016FB8046894632463B460AF1F00029
:101C400000F0EAFA42464B460AF5807000F0E4FAEA
:101C500042464B463046394601F04EFA0022AB0769
:101C6000CDE9080101F0FCFA0AF58C7203C200BF4D
:101C7000DAF8700100BFDAF87C1100EB010B58466E
:101C800002F078F8019001F0F7FE0F4A0F4BCDE912
:101C9000020101F0D3FC0022AB07CDE9040101F001
:101CA000DFFA00220A4BCDE9060101F0D9FACDE9AD
:101CB000080101F0EFF9CAF840010BB0BDE8F08F60
:101CC0007B14AE47E17A743FFAEDEBC03923CA3F8B
:101CD0000060984070B5054600221821284600F0A3
:101CE00097FD054600F19004204600F05DF904469A
:101CF0001D48206000206060A060E0602061201D21
:101D000000F066F8041F00206061A061E0612062BD
:101D100004F1140000F05CF8A0F1140400206062EB
:101D2000A062E062206304F1240000F051F8A0F109
:101D3000240400BFA4F1900504F1400000BFA0F10D
:101D4000D0050C3000F0FAFAA0F1DC056C3000BFD1
:101D5000A0F5A4750C3000BFA0F5AA750C3000BF2B
:101D6000A0F5B075284670BD7C42000870B50446E9
:101D700004F5B07000BFA0F5B0740C3800BFA0F53A
:101D8000AA740C3800BFA0F5A474783800BFA0F185
:101D9000D0042546983800F0D5FEA0F1380420463E
:101DA00070BD90F840305B1C03F03F02436C9342DF
:101DB00002D0036CC1540264704710B50446402140
:101DC0002046FEF720FA002020646064204610BD03
:101DD00010B50446204600F0E7F8044601482060AC
:101DE000204610BD4C42000870B5044694F84810D7
:101DF0000E4A52F8210040F22551FFF7C0FBA0B176
:101E000094F84810094A52F82100FFF773FCC5B254
:101E100029462046FFF7C5FF94F84810034A52F8B8
:101E2000210040F22551FFF78FFB70BDC800002054
:101E300030B587B004460D4694F8480078B994F858
:101E400048103F4A52F8211094F848203D4B53F86F
:101E5000222041EA02000121FEF780FE0FE094F803
:101E60004810374A52F821000121FEF767FE94F826
:101E70004810344A52F821000121FEF76FFE14F891
:101E8000480F314931F81000ADF8180003208DF8E3
:101E90001A0018208DF81B0021782C4A52F82100D6
:101EA00006A9FEF715FD2078294931F81000ADF894
:101EB000180004208DF81B002178244A52F82100D4
:101EC00006A9FEF705FD02950020ADF80C00ADF85F
:101ED0000E00ADF81000ADF814000C20ADF81200A3
:101EE00021781C4A52F8210002A9FFF797FB2078BD
:101EF000194911F810008DF8040000208DF8050034
:101F00002078164911F810008DF8060001208DF890
:101F1000070001A8FEF7BEFD21780E4A52F8210005
:101F2000012240F22551FFF754FB14F84819094AE1
:101F300052F821000121FFF716FB07B030BD000069
:101F4000F4410008004200080C420008D4000020C0
:101F500012420008C8000020184200081E42000873
:101F600070B504460D462046FFF727FF044684F867
:101F7000485094F8480008B90748046094F84800AD
:101F8000012801D10548046094F84800022801D1D5
:101F900003480460204670BDE0000020E4000020FB
:101FA000E800002070470000014901607047000010
:101FB000644200082DE9F84304460D4616461F46C4
:101FC000DDE9088925606660278184F80A8084F845
:101FD0000B902089ADF80000A07A8DF80300E07A1C
:101FE0008DF8020001212068FEF7B8FD694660689F
:101FF000FEF76EFCBDE8F8830189426851617047C5
:1020000001894268116170472DE9FC4107460C4681
:1020100015461E46DDF820800120A84083B20748FF
:1020200000EBC400CDE900684268044850F8341061
:102030003846FFF7BFFF3846BDE8FC812800002086
:102040002DE9F0418CB004460D4616461F4625701A
:102050006680A78001210220FEF770FD2078C0B9BC
:102060000320182300220121009002A8FFF7CCFFD3
:10207000804602A800BF00BF03201823012211469A
:10208000009002A8FFF7C0FF804602A800BF00BF73
:1020900018E00320182306220021009002A8FFF771
:1020A000B3FF804602A800BF00BF03201823072209
:1020B0000021009002A8FFF7A7FF804602A800BFFA
:1020C00000BF00BF6088ADF82800A088ADF82400EC
:1020D0000020ADF82A00ADF8260009A91D48FFF739
:1020E000C7F96020ADF814000120ADF816000020FB
:1020F000ADF81A00ADF81C00207880B905A9154884
:10210000FFF7DAF808211348FFF726F905A9114867
:10211000FFF72CF908210F48FFF766F90FE005A932
:102120000C48FFF713F808210A48FFF75BF805A9E8
:102130000848FFF761F808210648FFF7AFF80121CA
:102140000448FEF75BFF01210248FEF766FF0CB072
:10215000BDE8F081000400402DE9F04104460E4640
:10216000E680207808B9052700E02327002E1EDA34
:102170007042384485B26088A84203DA65886842B4
:1021800000B2E080207840B929462248FFF73DF9A7
:1021900000212048FFF73BF907E000211D48FFF729
:1021A00030F929461B48FFF72EF9BDE8F081002ED3
:1021B0001BDDF01985B26088A84202DA658828B272
:1021C000E080207840B929461248FFF720F9002125
:1021D0001048FFF71AF907E000210E48FFF713F93E
:1021E00029460C48FFF70DF9DFE7207840B96188F0
:1021F0000848FFF70CF961880648FFF706F907E081
:1022000061880448FFF7FFF861880248FFF7F9F892
:1022100000BFCAE700040040C0E902237047000085
:102220002DE9F04194B004460D4616461F46256040
:102230006660A7600020E06001214802FEF78EFC86
:1022400001210846FEF76AFC0320002304221946F8
:10225000009011A8FFF7D8FE804611A800BF00BF6C
:102260003448FEF771FA3448069004F110000790E4
:10227000002008900120099000200A9080200B90F7
:1022800040000C9080000D9020200E9000020F90D6
:102290000020109006A92748FEF7FCFA01212548E6
:1022A000FEF745FA0020019001208DF808008DF816
:1022B00009004FF4602003900020049001208DF865
:1022C000140001A91C484C38FEF798F94FF440401F
:1022D000FEF718FC05230122042117484C38FEF7AD
:1022E000B5F9012114484C38FEF769F9012112486B
:1022F0004C38FEF759F910484C38FEF703FA00BF86
:102300000D484C38FEF770F90028F9D10A484C38CE
:10231000FEF708FA00BF08484C38FEF75BF90028C2
:10232000F9D1012104484C38FEF7F1F914B0BDE8A9
:10233000F0810000080002404C240140704700007A
:1023400070B58AB004460D462570207810B93D4816
:10235000A06002E04FF08040A060002060806060DC
:102360002078E0B901210420FEF7E8FB03200423D4
:1023700006220121009001A8FFF746FE064601A8AB
:1023800000BF00BF0320042307220121009001A801
:10239000FFF73AFE064601A800BF00BF1CE001217E
:1023A0000846FEF7CBFB03200423002211460090D1
:1023B00001A8FFF729FE064601A800BF00BF0320C1
:1023C000042301220021009001A8FFF71DFE06460C
:1023D00001A800BF00BF00BF07A8FFF79BF80020BF
:1023E000ADF81C004FF6FF70ADF820000020ADF8EE
:1023F0002200ADF81E0007A9A068FFF739F80023F6
:102400001A460321A068FEF714FE04A8FEF78CFE0E
:102410000A20ADF8180004A9A068FEF72FFE0121DC
:10242000A068FEF7F7FD01221146A068FEF785FEC1
:102430000021A068FEF7EEFF0121A068FEF7EDFD88
:102440000AB070BD0008004010B50446A068FEF751
:1024500011FE00B260800020A1688884B4F90210E7
:1024600060680844606046F2A8116068884201DD37
:102470000846606010BD2DE9F04705460E469046BF
:102480000027284600F050F9002449E0012000EB25
:10249000440105F10900415C10F8140041EA0020F4
:1024A00005F11801E21C31F81210084405F124016D
:1024B000095748430FFA80F9484601F05BFC07468C
:1024C000B8F1000F02D146F8247027E0A87830B1A7
:1024D00008280BD0102810D018281CD114E04FF079
:1024E0008D41384601F068FB074614E04FF08C41FF
:1024F000384601F061FB07460DE04FF08B4138464E
:1025000001F05AFB074606E04FF08A41384601F0D9
:1025100053FB074600BF00BF46F82470601CC4B2DE
:10252000032CB3DBBDE8F08710B5044680236B2293
:102530006821204600F051F900236B2268212046D3
:1025400000F04BF963781B226821204600F045F922
:10255000A3781C226821204600F03FF9002338228E
:102560006821204600F039F900236A2268212046BC
:1025700000F033F9002323226821204600F02DF9D2
:10258000802337226821204600F027F904231922EE
:102590006821204600F021F906231A2268212046EE
:1025A00000F01BF9682104F1380000F017FB7521D9
:1025B00004F1380000F05AFB04F1380000F0F0FAA2
:1025C0000122682104F1380000F0E0FA04F138003B
:1025D00000F00CFB68280ED101236B2268212046F5
:1025E00000F0FBF800236C226821204600F0F5F88B
:1025F0000120207010BD0020207000BFFAE700000D
:102600002DE9FC5F05460E4691464FF0000A28462C
:1026100000F0B3F8002475E0012000EB4401E81C51
:10262000415C10F8140041EA002005F1180131F86E
:102630001410084405F12401095748430FFA80FBA0
:10264000584601F097FB8246B9F1000F02D146F8D7
:1026500024A055E0687830B1082812D010281ED088
:10266000182838D129E0504601F006FA0746274AD3
:10267000274B00F0F5FDCDE9000100F00BFD82468F
:1026800029E0504601F0F8F90746204A214B00F0B6
:10269000E7FDCDE9000100F0FDFC82461BE050465D
:1026A00001F0EAF9194A1C4BCDE9000100F0D8FD10
:1026B000074600F0EFFC82460DE0504601F0DCF9E1
:1026C0000746124A154B00F0CBFDCDE9000100F0A2
:1026D000E1FC824600BF00BFB9F1020F02D146F80B
:1026E00024A00DE0504601F0C7F907460C4A0D4BF7
:1026F00000F0B6FDCDE9000100F0CCFC46F8240066
:10270000601CC4B2032C87DBBDE8FC9FFCA9F1D29E
:102710004D6260404D6250404D6240404D623040DD
:10272000B694631ADCA54C4070B5044600256821B8
:1027300004F1380000F052FA3B2104F1380000F0B7
:1027400095FA04F1380000F02BFA0622682104F112
:10275000380000F01BFA09E004F1380000F046FAF6
:1027600029466A1CD5B204F10902505404F138001C
:1027700000F084FA0028EFD170BD70B50446002542
:10278000682104F1380000F029FA432104F13800EF
:1027900000F06CFA04F1380000F002FA0622682119
:1027A00004F1380000F0F2F908E004F1380000F01C
:1027B0001DFA29466A1CD5B2E21C505404F13800B7
:1027C00000F05CFA0028F0D170BD10B580F824103C
:1027D000252422542624235410BD2DE9F04104461B
:1027E0000F4615461E46394604F1380000F0F6F94A
:1027F000294604F1380000F023FA314604F138008C
:1028000000F01EFA04F1380000F0CAF9BDE8F081CA
:102810002DE9F04104460E4617465A2104F13800CE
:1028200000F084F9A0F13804002104F1380000F030
:102830008DF86670A77000202070002506E000214A
:1028400004F1180020F81510681CC5B2062DF6DB3F
:10285000012084F82400012125200155262001555E
:102860002046BDE8F08170B504460021204600F006
:10287000FBF80121204600F013F90121204600F069
:10288000F3F8204600F038F980F0010500212046D9
:1028900000F0EAF8284670BD10B504460021204635
:1028A00000F0FEF80121204600F0DEF8002120466D
:1028B00000F0DAF810BD70B506460025012130465B
:1028C00000F0EEF8002410E00121304600F0CCF8D2
:1028D000304600F011F9C4F1070188402843C5B221
:1028E0000021304600F0C0F8641C082CECDB2846C0
:1028F00070BD10B504460121204600F0D1F8012139
:10290000204600F0B1F80021204600F0ADF810BDDF
:1029100070B506460D46002415E0C4F107020120FB
:102920009040284008B1012000E0002001463046D8
:1029300000F0B6F80121304600F096F8002130464C
:1029400000F092F8641C082CE7DB70BD38B5044633
:102950000D4601210820FEF701F94FF40070ADF893
:10296000000003208DF8020014208DF80300694652
:102970001148FDF7ADFF4FF48070ADF80000032063
:102980008DF8020014208DF8030069460A48FDF70F
:102990009FFF002084F8520084F8530084F8300030
:1029A00084F831000121204600F05EF80121204624
:1029B00000F076F838BD0000000C014070B5044608
:1029C0000021618120794006060EE088012801D1AE
:1029D00046F00106204600F09DF831462046FFF7FC
:1029E00097FF2046FFF73FFF20B9204600F074F81C
:1029F000022070BDE088012818D112E02046FFF7C0
:102A00005AFF6289511C6181E1688854618920897B
:102A1000814203DA2046FFF73FFF02E02046FFF73E
:102A200068FF618920898142E8DB17E0002512E018
:102A3000E068415D2046FFF76BFF2046FFF713FF7C
:102A400020B9204600F048F80320D2E76089401CF6
:102A50006081681CC5B22089A842E9DC204600F0EC
:102A60003BF80020C5E7000070B505460C4600BFE6
:102A7000002001E000BF401C95F854108142F9DCB1
:102A800000BF012C03D121020448FEF700F824B94D
:102A90004FF480710148FDF7F8FF70BD000C014054
:102AA00070B505460C4600BF002001E000BF401C89
:102AB00095F854108142F9DC00BF012C03D161026A
:102AC0000448FDF7E4FF24B94FF400710148FDF715
:102AD000DCFF70BD000C014010B50446002120460B
:102AE000FFF7DEFF01212046FFF7BEFF0121204650
:102AF000FFF7D6FF10BD000010B504464FF400717B
:102B00000348FDF7B9FF08B1012010BD0020FCE724
:102B1000000C014010B5044600212046FFF7C0FF1D
:102B200000212046FFF7A0FF10BD0000034A02600D
:102B300000BF034A026080F8541070473C4200080E
:102B40002C42000800BF00BF00BF704770B50446AC
:102B50000E461546202D00DD2025A6800121E180AE
:102B6000258194F8301004F110000144E1602068E0
:102B700001682046884794F83110A07A084484F808
:102B800031000021E18094F8310070BD70B5054638
:102B90000C461646E1B232462846FFF7D7FF70BD15
:102BA00070B5044694F8530008B1012070BD206848
:102BB0000168204688470546002084F8520084F8C2
:102BC00053002846F2E7818090F8523000F132023B
:102BD0001344C36000230381C380704730B50546AA
:102BE0000C46E1B22846FFF7EEFF30BD014691F8F2
:102BF000300091F83120904205D1002081F830005A
:102C000081F83100704791F8302091F83100401E72
:102C100082420AD191F8303001F11002D05C0022DA
:102C200081F8302081F83120ECE700BF11F8302F17
:102C30000878401C01F8300901F11000805CE1E7E0
:102C400090F85220202A03D1012280F853207047A7
:102C500010F8523F0278521C00F8522900F132025B
:102C6000D1540289521C028100BFF0E730B50546FD
:102C70000C46E1B22846FFF7E3FF30BD014691F86C
:102C8000310091F83020801AC0B27047410008022C
:102C900018BF04200A0E18BF40F001004FF07F4219
:102CA00032EA010108BF40F00200012808BF0520F8
:102CB00070470020FDF738BB00F00ABF6FF05E01DF
:102CC000080701F052BA000010B500210C48FFF7C8
:102CD00047F904460B4A0C49FDF77EFA0B48FEF70C
:102CE000F9FF0446074A0A49FDF776FA0021094828
:102CF000FFF736F90446034A0349FDF76DFA10BDA4
:102D0000F000002000000008A51F0008400100207E
:102D10006D1D0008C80200202DE9F0474FF0684201
:102D200002EB40030C460546B3F1654F3CBF02EB96
:102D30004102B2F1654F7CD2C0F3C753C1F3C75211
:102D40009A1A1B2A06DD10F0004F14BF7648774808
:102D5000BDE8F08712F11A0F17DA11F0004F06D014
:102D600010F0004F0CBF72487248BDE8F087214652
:102D7000284600F021FF0446FFF788FF042808BF1B
:102D8000FFF79CFF2046BDE8F0874200B2EB410F01
:102D900025D910F0004F19BF674F684E684F694E34
:102DA000224685F0004415460A4680F00041104650
:102DB0000A1A5200B2F1807F40D248406249DFF8DF
:102DC0008CA110F0004F18D04FF03F48384601F06A
:102DD00025F907465146304601F020F917E011F079
:102DE000004F04BF00263746E2D010F0004F19BF55
:102DF000574F584E584F594EDAE74FF07C583846E7
:102E000000F066FE07465146304600F061FE064679
:102E10004146284600F0FAFF214600F059FE82465E
:102E20002146404600F0F2FF294601F0ECF85146F9
:102E300000E037E000F0C0FE044604E021462846EA
:102E400000F0BAFE0446014600F0E0FF8046444927
:102E500000F0DCFF434900F03BFE414600F0D6FFA6
:102E6000414900F035FE414600F0D0FF3F4900F0F7
:102E70002FFE414600F0CAFF3D4900F029FE0546FD
:102E80004146204600F0C2FF294600F0BFFF314610
:102E900000F01EFE214600F01BFE3946BDE8F0475B
:102EA00000F016BE4FF07F42B2EB400F28BFB2EBEE
:102EB000410F03D2BDE8F047FFF7FEBE40EA010331
:102EC0005B0008BF44F0FF410AD0B2EB400F08BFDF
:102ED000B2EB410F06D125F0804024F08041054639
:102EE0000C4629E7B2EB400F12BF5FEA410245F002
:102EF000FF4004F000413FF41FAF4A0092EA400354
:102F00003FF51AAF002AACBF4FF09F464FF03E5638
:102F1000314600F07BFF05463146204600F076FF43
:102F200004462846214607E7DB0FC9BFDB0FC93F30
:102F3000DB0F4940DB0F49C00000C9BF22AAFDB921
:102F40000000C93F22AAFD390060ED3EC30ACE371A
:102F5000000049C022AA7DBA0000494022AA7D3A59
:102F60002DAD65BD8FB8D53D0FB511BE61C84C3EC6
:102F7000A8AAAABE044A1268111800BF024A126821
:102F80008A42FBD970470000C400002030B5002001
:102F900015490860154800684FF47A72B0FBF2F1E9
:102FA000B1F1807F00D31DE021F07F40401E4FF043
:102FB000E022506150170F22002807DA13071D0E78
:102FC0000B4B00F00F04241F1D5503E013071C0ECC
:102FD000084B1C5400BF00204FF0E02290610720F6
:102FE000106100BF30BD0000C400002000000020C0
:102FF00018ED00E000E400E000240025002600BFFA
:10300000FDF7ACFEFFF7C2FF4FF4E1311B48FEF7BE
:103010000FFF0A20FFF7AEFF1948FEF771FB2BE008
:1030200000F032F8001B05280BD300F02DF8044601
:103030001348FEF78BFC1248FEF73AFC1048FEF7E7
:10304000B9FD00F021F8401B052805D300F01CF85D
:1030500005460B48FEF708FD00F016F8A0EB060940
:10306000484600F09BFA07460022064B00F0E4FBBE
:1030700002D800F009F80646D2E70000C802002096
:10308000400100200088B3400148006870470000FC
:10309000C400002021F00042A2F16052B2F5801F6E
:1030A00001F0004328BFD2F17F6C0BD95FEA001C0E
:1030B00043EAC20242EB507018BF704728BF20F0AD
:1030C00001007047B2F5801FBCBF184670474FEA39
:1030D000410C1CF5001F02D2084600F05EBF70B51F
:1030E00000F056FB00000089FFF7F6BF4FF00040EC
:1030F000A0F580007047000010B591EA030F48BFAB
:1031000083F0004300F1D683841A71EB030C05D2DF
:10311000121943EB0C03001B61EB0C01DFF824E1F7
:103120004FEA1154A4EB135C1EEA430F18BF9EEA4A
:10313000445F73D023EA0E03DCF1200E21EA045130
:1031400043F4801332D322FA0CFE10EB0E0023FA64
:103150000CFE41EB0E01CCF1200E03FA0EFE10EB3B
:103160000E0051F10001B1F5801FCCF1200E32D2DA
:1031700001EB045112FA0EF2BDE8104058BF70473F
:10318000401C38BF5FEA420218BF7047002814BFD6
:1031900020F0010041F100014FEA410313F5001F47
:1031A00038BF7047A1F1C04100F040BB012A43EB9A
:1031B0000302ACF1200CDCF11F0E32BF4FF0000E09
:1031C00023FA0CF310EB030041EB0451B4EB115F55
:1031D000D0D0A1EB045101F5801149085FEA30001D
:1031E00001EB04510ED350F1000038BF12FA0EFE6D
:1031F00008D1BDE81040C9E7401C38BF5FEA420271
:10320000CAD1C3E7BDE810404FEA410313F5001FE0
:1032100038BF7047A1F1C04100F008BB9EEA445F8F
:1032200008D011EA5E0FBDE8104004BF01F0004174
:1032300000207047BDE8104070B500F0A9FA00BF4B
:1032400064FBBE3E0000E0FF491058BFC1F14041A1
:103250005B1058BFC3F140438B42EFF300807047CF
:103260002DE9C04130B4DFF8A0C23CEA111418BF08
:103270003CEA131400F0EC8081EA03051CEA111407
:1032800044EAD57418BF1CEA131500F0C780A4EBFC
:1032900005044FF0004545EAC12145EAC32341EA50
:1032A000505143EA525304F17F74994204F50034BB
:1032B0004FEAC0204FEAC22208BF904200F09C8033
:1032C0004FEA13650FF24016765D4FEA134506FB91
:1032D00005F7C7F1807706FB07F74FEAD737A7FB5B
:1032E00003687642C8F58038A7FB06CE38BFA8F140
:1032F000010807FB08E64FF0000EA6FB028CE6FB78
:1033000003CEDCF1000CCEF1004E38BFAEF1010E61
:10331000A6FB0C584FF000074FF00005E6FB0E87A8
:10332000A1FB08C6A0FB07CE16EB0E0645F1000573
:10333000E1FB076515F1E04E7EBFA4F580345FEA3E
:1033400046066D4116F1800745F100054FEA172743
:103350004FEA066647EA0567A6F1DE46B6F1805FEA
:103360004FEA15251FD9384624F0010C05EBC4712E
:10337000BCF1FE6F01EB0C1102D8F0BCBDE800817E
:1033800024425CBF01F5801E9EEAC47F02D4F0BCDB
:10339000BDE80081244238D4F0BCA1F1C041BDE8B1
:1033A000004100F043BA4FEAD22242EA43524FEAC8
:1033B000D323A7FB02864FEAD02040EA415007FB07
:1033C00003661EEA0E0F4FEAD12105FB026658BFC5
:1033D000A6EB0056B6EB00564FEA520E4EEAC37EFD
:1033E00018EB0E0E56EB530EBDD518EB02085E41DE
:1033F0007F1C55F10005B6E74FF480154FF000072C
:103400004FF000064FF00008ADE7F0BC4FF00000B1
:1034100001F1C04101F00041BDE8008111EA0C1F3B
:103420000CEA131500D00CE013EA0C1F00F0258005
:103430004FF00000F0BC81EA030101F00041BDE85B
:103440000081F0BCBDE8004181EA030100F0EEB963
:10345000F0BCBDE8004170B500F09AF9097EFC3E71
:1034600000F007B881EA03014FF0000001F00041CD
:10347000704781EA030100F0D9B9F0BCBDE8004112
:103480004FF0000021497047FFFDFBF9F7F5F4F21A
:10349000F0EEEDEBE9E8E6E4E3E1E0DEDDDBDAD8EF
:1034A000D7D5D4D3D1D0CFCDCCCBCAC8C7C6C5C44D
:1034B000C2C1C0BFBEBDBCBBBAB9B8B7B6B5B4B364
:1034C000B2B1B0AFAEADACABAAA9A8A8A7A6A5A44F
:1034D000A3A3A2A1A09F9F9E9D9C9C9B9A99999813
:1034E0009797969595949393929191908F8F8E8EB6
:1034F0008D8C8C8B8B8A8989888887878685858443
:1035000084838382828181800000FF070000F87F2E
:103510004FEA41034FEA5353A3F58063D3F11E03EF
:10352000C8BFD3F1210C0CDD4FF0004242EAC122AA
:1035300042EA505232FA03FC8CEAE17CACEBE170D7
:103540007047102BC4BF0020704703F5787CBCF196
:10355000FF3F04D06FF0004282EA2100704770B54F
:1035600000F016F94992248000207047F2E710F02D
:10357000004248BF4042B0FA80F310FA03F10AD08B
:10358000C3F11D0303F580634FEA415002EB035280
:1035900002EBD12170474FF000007047B0FA80F382
:1035A00010FA03F10AD0C3F11D0303F580634FEA5B
:1035B00041504FEA035202EBD12170474FF0000017
:1035C0007047000051EA030C17D41CF5801F58BF48
:1035D000BCF5801F00F10680994218BF704708BFF4
:1035E0009042704707D711F5801F58BF13F5801F11
:1035F00019D499427047894270471CF5801F08D53D
:10360000BCF5801FF7D58B4218BF704708BF8242B8
:1036100070474FF4001C1CEB410F38BF1CEB430FED
:1036200001D28B42704770B500F0B2F89224490085
:103630004FF000514FF08053FFF706BEDFF848C14E
:1036400070B51CEA111E1EBF1CEA13159EEA0C0F72
:1036500095EA0C0F00F06F8081EA030423EA4C1313
:103660004EEAD47E21EA4C1141F4801143F48013D8
:10367000AE44A1FB024CA0FB0365AEF17F7E361980
:1036800055EB0C05A1FB034C4CF10003A0FB021C05
:1036900016EB0C06654153F10003094218BF46F0D2
:1036A000010613F4007F0BD14FEA03314FEA0530D6
:1036B000340341EA155140EA16506FF003020AE064
:1036C0004FEAC3214FEAC520F40241EA555140EACE
:1036D00056506FF0020202EB2E4201EB025585EAD2
:1036E000CE710AD05FEA440C18BF24F0004450F1B8
:1036F000000041F1000120EAD47040F2FE7C6245F6
:1037000000D270BDA84214BF4FF080444FF0404437
:10371000002E08BF0024BEF1806FA8BFA1F1C041F8
:10372000BDE8704080F282804FF0000001F1C0419E
:1037300001F0004170479EEA0C0F0CEA131518BF08
:1037400095EA0C0F06D04FF0000081EA030E0EF050
:10375000004170BD00F01CF88900013E00F007B880
:1037600000F009B84FEA430C5FEA5C5C08D081EADC
:10377000030100F05BB84FEA410C5FEA5C5CF6D1F4
:103780004FF00000014970470000FF070000F87F7C
:103790000EF1020E2EF0030E5EF8046B364205D4D5
:1037A000012A43EB030515F5001F12D8012841EB50
:1037B000010C1CF5001F0CD80ED14FEAD17C15F579
:1037C000001F0CEB4C0C0CF1020C08BF4CEBD37C33
:1037D00004E04FF0080C01E04FEAD37C0CEB4C0501
:1037E00026FA05F606F00706B6F1040C06D20EEB33
:1037F000860CBDE870404CF0010C6047DFE80CF02F
:10380000090B02024FF000414FF00000A1F500212A
:1038100070BD19461046012851EB010418BFD4F5BC
:10382000001484BF002001F0004170BD0808A0F51D
:1038300000114FEA3101704753EA010C17D41CF50F
:10384000801F58BFBCF5801F00F106808B4218BF57
:10385000704708BF8242704707D713F5801F58BFD3
:1038600011F5801F19D48B4270479B4270471CF59D
:10387000801F08D5BCF5801FF7D5994218BF704747
:1038800008BF904270474FF4001C1CEB430F38BF39
:103890001CEB410F01D2994270470FB40CBC03BC22
:1038A000FFF7C1BE10B591EA030F48BF83F0004394
:1038B0003FF52AAC841A71EB030C07D212198CF075
:1038C000004C43EB0C03001B61EB0C01DFF8A4E19F
:1038D0004FEA1154A4EB135C1EEA430F18BF9EEA93
:1038E000445F00F0B08023EA6E03524221EA0451A3
:1038F000C3EB6E0338BF5B1EDCF1200E25D322FA2A
:103900000CFE10EB0E0043FA0CFE41EB0E01CCF165
:10391000200E03FA0EFE10EB0E0051F10001CCF167
:10392000200E29D412FA0EF201EB0451BDE810402A
:1039300058BF7047401C1CBFB2F1004F70470028B1
:103940000CBF491C20F00100704712EB020E43EB44
:10395000030218BF4FF0010E4EEA4202ACF1200CF8
:10396000DCF11E0E54D943FA0CFE10EB0E0051F19F
:10397000FF31CCF11E0ED5D50EF1010E12FA0EFE5E
:10398000404141EB010101EB445C5FEA5C5C10D912
:1039900010EBDE7001EB045138BFBEF1004FBDE803
:1039A000104018BF704700280CBF491C20F00100D0
:1039B000704730D24FEAD42C11F5001124F4006482
:1039C0001BD0B1FA81F20B3AA41AA41ED2F1200343
:1039D000914030FA03F31943904001EBCC71002C75
:1039E00001EB0451BDE81040A8BF704701F1C04190
:1039F0004FF0000001F000417047B0FA80F310FA78
:103A000003F100D110BDE41A173C4805C90AE4E7E8
:103A100001EB045110BD491001EB0451BDE8104009
:103A20004FEA300002E04FF0000170474A0008BF43
:103A30000042F8D0B2F5001F28BF704701F00041E6
:103A40004FF0000070479EEA445F07D011EA5E0F16
:103A5000BDE8104004BF002100207047BDE81040C1
:103A600070B5FFF795FE00BF40DFF63E83F00041E2
:103A7000104670470000E0FF43004FEAD30C4FEAC6
:103A80003C0C43401FBF40070CF1605113F0FE4F48
:103A900070471CF0006F03D100200CF0004170470C
:103AA0000CF0004343EA507010B540EACC0000F03F
:103AB0002EFA00BF000000924FEA0001FFF7B6BEE9
:103AC0004FF000414FF00000A1F5002170470000C9
:103AD00090EA010F48BF81F0004100F1A682421A2E
:103AE0003CBF801A89184FEAD0524FF07F4C1CEA35
:103AF000410FA2EBD15318BF9CEA026F00F03B804C
:103B00004FF0004C4CEA00204CEA012121FA03FC62
:103B100010EB0C0C1ED202F1FF325FEA1C2040EBCE
:103B2000C25038BF70471CF07F0F4FEA400C18BFDF
:103B3000BCF17F4F38BF7047C3F12003994008BFE5
:103B400020F00100BCF17F4F38BF7047A0F1C040AA
:103B500000F023BA4FEA3C00000A40EBC25028BFF5
:103B60001CF0FF0F4FEA400CE6D018BFBCF17F4FAE
:103B700038BF7047EAE79CEA026F05D010EA5C0F95
:103B800008BF00F00040704710B500F0C0F900BF5A
:103B900064FBBE3E014800F0B6BA00BF0000C07F23
:103BA000401058BFC0F14040491058BFC1F14041DA
:103BB0008142EFF3008070474FF47F0C1CEAD01273
:103BC0001EBF1CEAD11392EA0C0F93EA0C0F00F00F
:103BD000858090EA010F48BF42F4807240F4000CE7
:103BE00041F400002CF07F4120F07F4000B581427D
:103BF000A2EB03020FF2081CACEB504EC0F1000028
:103C00009EF800E04FEA4E0E00FB0EFC38BF490064
:103C10004FEA2C1C02F5FA020CFB0EF34FEACE1E03
:103C20004FEA112C4FEAC1210EEB635E42EB2242B8
:103C30000EFB0CFC4FEA1C5300FB03114FEA112C46
:103C40004FEA01310EFB0CFC4FEADC4C00FB0C117F
:103C5000C14228BF09184CEB03335DF804EB10EBAD
:103C6000410143EBC250B2F57C0F38BF704729D5F4
:103C700012F0F00F1CBF00F1C04000F00040704790
:103C8000008182838485868788898B8C8D8E8F9135
:103C90009293959697999A9C9D9FA0A2A3A5A7A859
:103CA000AAACAEB0B2B3B5B7B9BCBEC0C2C5C7C985
:103CB000CCCED1D4D7D9DCDFE2E6E9ECF0F3F7FAE9
:103CC000FE0000004FEA400C0CF1807CBCF17E4FFE
:103CD00028BF7047B0F1C04000F05FB990EA010F13
:103CE0000CEAD11348BF42F48072624538BF634585
:103CF00007D213F47F0F16D080EA010000F00040D5
:103D0000704710B500F003F9097EFC3E00F005B8DD
:103D100080EA010000F00040704780EA010000F0F6
:103D2000004000F03AB912F47F0F04BF0248704718
:103D300080EA010000F031B90000C07F41000B0EA5
:103D4000D3F19E0208D950F400034FEA032323FA6B
:103D500002F048BF4042704710B500F0D8F800BFED
:103D600049922480002070476FF0004282EA2000D0
:103D70007047000010F0004148BF4042B0FA80F3A5
:103D800010FA03F2C3F19D030BD051EAC35101EBCA
:103D90001220530638BF704700F1010008BF20F021
:103DA0000100704750EA010C00F113801CF5000F70
:103DB00058BFBCF5000F01D48842704707D710F5F3
:103DC000000F58BF11F5000F15D488427047894283
:103DD00070471CF5000F04D5BCF5000FF7D58142E4
:103DE00070474FF0807C1CEB400F38BF1CEB410F3D
:103DF00001D28142704710B500F089F89224490041
:103E00004FF000504FF08051FFF7CABE4FF47F0CC7
:103E10001CEAD0121EBF1CEAD11392EA0C0F93EADF
:103E20000C0F00F0478090EA010F48BF42F4807207
:103E30004FF0004C4CEA00204CEA012102EB030257
:103E4000A0FB0113A2F50002002918BF43F00103F3
:103E50005B0028BF4FEA330342EB22425FEA132C98
:103E60004CEBC2502EBFBCEB436FB2F57C0F7047DA
:103E70004FEA036CBCF1004F08BF20F00100B2F51F
:103E80007C0F38BF70470BD582F0FF0212F5803FE0
:103E9000C8BF704700F1C040D8BF00F00040704775
:103EA00000F5000C5FEA4C0C48BF7047B0F1C04011
:103EB00000F073B890EA010F0CEAD11348BF42F446
:103EC0008072624538BF634504D280EA010000F089
:103ED0000040704710B500F01AF800BF8900013E9D
:103EE00000F007B800F009B85FEA410C5FEA1C6C0B
:103EF00008D080EA010000F050B85FEA400C5FEAA9
:103F00001C6CF6D14FF00040A0F5800070470EF118
:103F1000020E2EF0030E5EF8044B244204D44FEA46
:103F20004102B2F17F4F11D84FEA4003B3F17F4F06
:103F30000CD80ED14FEAD07CB2F17F4F0CEB4C0C79
:103F40000CF1020C08BF4CEBD17C04E04FF0080CE4
:103F500001E04FEAD17C0CEB4C0324FA03F404F0AB
:103F60000704B4F1040C06D20EEB840CBDE810403B
:103F70004CF0010C6047DFE80CF0070802024FF03C
:103F80000040A0F5800010BD0846420018BFD2F1E5
:103F9000807288BF00F0004010BDFF2141EAD05080
:103FA000C005704751EA000C00F113801CF5000FAA
:103FB00058BFBCF5000F01D48142704707D711F5F7
:103FC000000F58BF10F5000F15D481427047894289
:103FD00070471CF5000F04D5BCF5000FF7D58842DB
:103FE00070474FF0807C1CEB410F38BF1CEB400F3B
:103FF00001D28842704780EA010081EA000180EA2C
:104000000100FFF7F8BE80F0004090EA010F7FF555
:1040100066AD81F0004100F008B8000090EA010FA1
:1040200048BF81F000413FF55AAD421A04D882F0F2
:104030000042A0EB020011444FEAD0524FF07F4CF7
:104040001CEA410FA2EBD15318BF9CEA026F4AD081
:104050004FF0004C4CEA00204CEA012121FA03FC0D
:10406000B0EB0C0C0FD412F0FE0F36D05FEA4C0010
:104070001DD5001240EBC25038BF70471CF03F0FF7
:1040800018BF70470BE0A2F101025FEA1C2040EB71
:10409000C25038BF70471CF07F0F18BF7047C3F184
:1040A0002003994014BF401E20F001007047800893
:1040B0004FEA122308BF7047B0FA80FCA2EB0C0253
:1040C000CCF1280C60FA0CF093EA122F04BF00EB3D
:1040D000C25070474FEAC3707047130A5FEADC10A2
:1040E00008BF7047F6E79CEA026F04D010EA5C0F45
:1040F00008BF0020704710B5FFF709FF40DFF63E0C
:1041000081F0004070470CF00F03092B08BF082016
:1041100000F051800A2B0BD0082B18BF704708BF46
:104120001CF0400F0AD04FF000004FF00001704724
:104130001CF0400F18BF4FF0004070471CF0100FEC
:1041400008D020F0704300F07F4242EAD3014FEAEA
:104150004370704700F0604021F07F4242EA000265
:1041600001F07F4040EA727070474FF0FF0212EAA0
:10417000D0521CBF92F0FF038B42C2BFD14200EB72
:10418000C1507047002A0AD0002B0BD0002900F044
:104190000040A4BF40F0FE4040F40000704700F033
:1041A0000040704743024FF00B0C18BF4CF0806C7E
:1041B0007FF4F0AC70471CF4801F11D01CF4E02F8A
:1041C00003D06FEACC31490070474FF04050EFF315
:1041D000008222F0704242EA000282F300887047B7
:1041E0004FF0000070470000A9FECAFFDFFF00008B
:1041F0000000000000400000000002000000040079
:104200000400000004000000080000000002040098
:104210000004000408000008250026002700010013
:10422000020003000000000000000000BD2900089B
:104230004D2900080000000000000000B32C000819
:10424000000000000000000000000000000000006E
:10425000000000000000000000000000000000005E
:1042600000000000B32C0008B32C0008B32C000899
:10427000B32C000800000000000000000000000057
:10428000000000000000000000000000B042000834
:1042900000000020EC000000280100089C430008FA
:1042A000EC0000208C220000440100081DEAFFFF02
:1042B00000A24A0400000000000000000102030404
:1042C00006070809000000000102030401020304BC
:1042D000060708090204060804000000000801405F
:1042E00008000000000C0140100000000010014018
:1042F00020000000001401404000000000180140B0
:1043000080000000001C014000010000002001406E
:104310000000000000000000000000006F12833A5F
:10432000A69B443B0000003F01000000000000008D
:10433000000000000000000000000000000000007D
:10434000000000000000000000000000000000006D
:104350000000803F00000000000000000000803FDF
:104360008FC2974233331341000000000000000069
:104370000000000000000000003801400044004040
:10438000004800400008014000080140000C0140C6
:0C43900000000000000000000000000021
:04000005080000ED02
:00000001FF
